:100000000C9463000C94A6040C94A6040C94A6040F
:100010000C94A6040C94A6040C94A6040C94A604B8
:100020000C94A6040C94A6040C9476010C94A604DB
:100030000C94A6040C94A6040C94A6040C94A60498
:100040000C94A6040C94A6040C94A6040C94A60488
:100050000C94A604BB00CE00E100F4001A010701D5
:10006000AE00AE00AE00AE00AE00AE00AE00AE0020
:10007000AE00AE002D01320137013C0148014101C3
:10008000AE00AE00AE00AE00AE00AE00AE00AE0000
:10009000AE00AE004D01520157015C0168016101E3
:1000A000AE00AE00AE00AE00AE00AE00AE00AE00E0
:1000B000AE006D01006000628000620064000950C3
:1000C00000640066800011241FBECFE5D8E0DEBFCB
:1000D000CDBFE4EBF0E040E017C0B591A5913591BC
:1000E0002591059107FD0CC095918591EF01F92FA0
:1000F000E82F05900D92A217B307D9F7FE0104C0AF
:100100001D92A217B307E1F7E53CF40731F70E940F
:0A0110008D000C948B00F894FFCFD3
:10011A000E9476040E9427040E94A00462E084E4FC
:10012A000E948D0463E084E40E948D0464E084E408
:10013A000E948D0465E084E40E948D0466E084E4F4
:10014A000E948D0467E084E40E948D04CFEFD0E022
:10015A0011E08FEF0E94880490E0FC017197E03370
:10016A00F105B8F7E65DFF4F0C94820464E084E47D
:10017A000E949D04882341F064E084E40E949D0467
:10018A00813019F4C12F01C0CD2F8C2F0E94880411
:10019A00E0CF65E084E40E949D04882341F065E095
:1001AA0084E40E949D04813019F4C12F01C0CD2F2F
:1001BA008C2F0E948804CDCF66E084E40E949D04BF
:1001CA00882341F066E084E40E949D04813019F49A
:1001DA00C12F01C0CD2F8C2F0E948804BACF67E0AF
:1001EA0084E40E949D04882341F067E084E40E942D
:1001FA009D04813019F4C12F01C0CD2F8C2F0E948C
:10020A008804A7CF62E084E40E949D04882341F019
:10021A0062E084E40E949D04813019F4C12F01C078
:10022A00CD2F8C2F0E94880494CF63E084E40E942F
:10023A009D04882341F063E084E40E949D04813098
:10024A0019F4C12F01C0CD2F8C2F0E94880481CFB1
:10025A0064E084E40E9491047CCF65E084E40E9417
:10026A00910477CF66E084E40E94910472CF67E03C
:10027A0084E40E9491046DCF0E94270462E084E422
:10028A000E94910466CF63E084E40E94910461CFE6
:10029A0064E084E40E9495045CCF65E084E40E94F3
:1002AA00950457CF66E084E40E94950452CF67E034
:1002BA0084E40E9495044DCF0E944E0462E084E4D7
:1002CA000E94950446CF63E084E40E94950441CFDE
:1002DA008FEF0E94880490E09093630080936200FD
:0202EA0038CF0B
:1002EC001F920F920FB60F9211242F933F934F939F
:1002FC005F936F937F938F939F93AF93BF93EF9382
:10030C00FF93809165008F5F8093650080916500FD
:10031C008A3008F458C0109265000E945804BC0141
:10032C0080E090E00E94990320E030E040E85EE33A
:10033C000E9499040E94D603709361006093600040
:10034C008091620090916300209160003091610077
:10035C0001962817390740F062E084E40E9491046A
:10036C0081E0809364002FC08091620090916300C3
:10037C00209160003091610001978217930738F04B
:10038C0062E084E40E949504109264001CC02091E9
:10039C006200309163008091600090916100281799
:1003AC00390789F480916400813029F462E084E497
:1003BC000E94910408C080916400811104C062E025
:1003CC0084E40E949504FF91EF91BF91AF919F91AE
:1003DC008F917F916F915F914F913F912F910F90E2
:0803EC000FBE0F901F90189541
:1003F400823419F118F4813439F008958334B1F159
:10040400843409F44CC00895413059F42AB381E08E
:1004140090E002C0880F991F6A95E2F7822B8ABB8D
:1004240008952AB381E090E002C0880F991F6A956D
:10043400E2F7809582238ABB0895413059F427B3AB
:1004440081E090E002C0880F991F6A95E2F7822B41
:1004540087BB089527B381E090E002C0880F991FFD
:100464006A95E2F78095822387BB0895413059F459
:1004740024B381E090E002C0880F991F6A95E2F7E7
:10048400822B84BB089524B381E090E002C0880FDE
:10049400991F6A95E2F78095822384BB08954130C1
:1004A40059F421B381E090E002C0880F991F6A9546
:1004B400E2F7822B81BB089521B381E090E002C072
:1004C400880F991F6A95E2F78095822381BB08956E
:1004D400823419F118F4813439F008958334B1F178
:1004E400843409F44CC00895413059F42BB381E0AD
:1004F40090E002C0880F991F6A95E2F7822B8BBBAC
:1005040008952BB381E090E002C0880F991F6A958B
:10051400E2F7809582238BBB0895413059F428B3C8
:1005240081E090E002C0880F991F6A95E2F7822B60
:1005340088BB089528B381E090E002C0880F991F1A
:100544006A95E2F78095822388BB0895413059F477
:1005540025B381E090E002C0880F991F6A95E2F705
:10056400822B85BB089525B381E090E002C0880FFB
:10057400991F6A95E2F78095822385BB08954130DF
:1005840059F422B381E090E002C0880F991F6A9564
:10059400E2F7822B82BB089522B381E090E002C08F
:1005A400880F991F6A95E2F78095822382BB08958C
:1005B4000FC00E94610438F00E94680420F0952363
:1005C40011F00C947C040C94A30411240C94700476
:1005D4000E94050470F3959FC1F3950F50E0551FD9
:1005E400629FF001729FBB27F00DB11D639FAA2784
:1005F400F00DB11DAA1F649F6627B00DA11D661FD3
:10060400829F2227B00DA11D621F739FB00DA11DF3
:10061400621F839FA00D611D221F749F3327A00DAD
:10062400611D231F849F600D211D822F762F6A2F49
:1006340011249F5750409AF0F1F088234AF0EE0FAE
:10064400FF1FBB1F661F771F881F91505040A9F7DB
:100654009E3F510580F00C947C040C9470045F3F21
:10066400E4F3983ED4F3869577956795B795F79517
:10067400E7959F5FC1F7FE2B880F911D969587958F
:0406840097F9089545
:100688008234D9F018F4813431F04DC0833439F113
:100698008434B9F148C029B381E090E0062E02C045
:1006A800880F991F0A94E2F730E08223932302C04F
:1006B800959587956A95E2F7089526B381E090E0CD
:1006C800062E02C0880F991F0A94E2F730E08223B1
:1006D800932302C0959587956A95E2F7089523B309
:1006E80081E090E0062E02C0880F991F0A94E2F775
:1006F80030E08223932302C0959587956A95E2F7A7
:10070800089520B381E090E0062E02C0880F991F5B
:100718000A94E2F730E08223932302C095958795E7
:0A0728006A95E2F7089580E0089555
:10073200E89409C097FB3EF4909580957095619579
:100742007F4F8F4F9F4F9923A9F0F92F96E9BB272F
:100752009395F695879577956795B795F111F8CFAB
:10076200FAF4BB0F11F460FF1BC06F5F7F4F8F4F16
:100772009F4F16C0882311F096E911C0772321F00C
:100782009EE8872F762F05C0662371F096E8862FA4
:1007920070E060E02AF09A95660F771F881FDAF7FB
:0A07A200880F9695879597F9089542
:1007AC000E940D0488F09F5798F0B92F9927B751E4
:1007BC00B0F0E1F0660F771F881F991F1AF0BA95F9
:1007CC00C9F714C0B13091F00E946F04B1E00895E4
:1007DC000C946F04672F782F8827B85F39F0B93FD6
:1007EC00CCF3869577956795B395D9F73EF49095AC
:0E07FC008095709561957F4F8F4F9F4F0895A8
:10080A0057FD9058440F551F59F05F3F71F04795B7
:10081A00880F97FB991F61F09F3F79F0879508959C
:10082A00121613061406551FF2CF4695F1DF08C0BB
:10083A00161617061806991FF1CF869571056105D8
:04084A000894089571
:10084E008EE48CBF83B7886083BF83B78F7B83BFF3
:10085E0083B7816083BF83B78D7F83BF83B7846087
:0C086E0083BF789489B7826089BF089529
:10087A00092E0394000C11F4882352F0BB0F40F4A4
:10088A00BF2B11F460FF04C06F5F7F4F8F4F9F4FE4
:02089A000895BF
:10089C0083B78E7F83BF83B78D7F83BF83B78B7FF7
:0408AC0083BF089569
:1008B000369A349BFECF349A84B125B190E0922BC6
:0208C000089599
:0E08C20000240A941616170618060906089553
:0E08D00000240A941216130614060506089555
:0E08DE00E894BB2766277727CB0197F908958A
:0C08EC003E9A3F9A379A329A319A08954A
:0C08F80097F99F6780E870E060E00895C9
:0C090400EE0FFF1F0590F491E02D099408
:0A0910008FB9779BFECF8FB10895D9
:08091A0041E00E94FA0108957A
:0809220041E00E946A02089501
:08092A0040E00E946A020895FA
:080932000E94DA020C943D045E
:06093A000E944403089531
:06094000BE9A6E9A0895B4
:060946009FEF80EC089514
:04094C000C94000007
:0209500018008D
:00000001FF
