:100000000C943A000C94BD0B0C94BD0B0C94BD0BDE
:100010000C94BD0B0C94BD0B0C94BD0B0C94BD0B40
:100020000C94BD0B0C94BD0B0C94180B0C94BD0BD5
:100030000C94BD0B0C94BD0B0C94BD0B0C94BD0B20
:100040000C94BD0B0C94BD0B0C94BD0B0C94BD0B10
:100050000C94BD0BB20407058E0595059C05A30500
:10006000AE054C05B605AD040060007000177E00BB
:100070007000738011241FBECFE5D8E0DEBFCDBF76
:10008000E8E6F0E040E017C0B591A59135912591E3
:10009000059107FD0CC095918591EF01F92FE82F8F
:1000A00005900D92A217B307D9F7FE0104C01D9267
:1000B000A217B307E1F7E437F40731F70E946E01A6
:0800C0000C946200F894FFCFDC
:1000C80057656C636F6D6520484F4D45004C6F67F1
:1000D800696E20666F720066697273742074696D48
:1000E80065005365742041646D696E207061737397
:1000F8000041646D696E20706173733A00506173DA
:100108007320536176656400536574205573657276
:10011800205061737300557365724E20506173737C
:100128003A0053657373696F6E2054696D656F7516
:1001380074004C6F67696E20626C6F636B65640056
:1001480077616974203230207365636F6E64730061
:1001580053656C656374206D6F6465203A00303AAE
:1001680041646D696E20313A557365720057726F3C
:100178006E6720696E7075742E0041646D696E201B
:100188006D6F646500456E74657220506173733AD3
:1001980000526967687420706173730057726F6EDC
:1001A800672050617373005472696573206C6566CB
:1001B800743A0055534552206D6F646500456E745E
:1001C800657220706173733A0057726F6E672070A2
:1001D80061737300313A526F6F6D3120323A526F4A
:1001E8006F6D3200333A526F6F6D3320343A4D6F72
:1001F80072652000333A526F6F6D3320343A526F74
:100208006F6D340057726F6E6720696E7075740079
:10021800313A526F6F6D3420323A446F6F7220203A
:1002280000333A41697220436F6E642E343A524566
:100238005400313A5365742074656D706572617449
:100248007572652000323A436F6E74726F6C2020AD
:10025800303A524554005365742074656D702E3AD7
:100268005F5F200054656D706572617475726520FA
:0502780053656E7400E7
:10027D0020526F6F6D3120533A2000526F6F6D32E7
:10028D0020533A00526F6F6D3320533A00526F6F07
:10029D006D3420533A00446F6F7220533A00416918
:1002AD007220436F6E642E20533A004F4E004F461E
:1002BD004600312D4F6E20322D4F666620302D5267
:0F02CD0045540057726F6E6720696E707574002C
:1002DC00CF93DF93CDB7DEB72C970FB6F894DEBF74
:1002EC000FBECDBF60E083E40E94B10B61E083E4FC
:1002FC000E94B10B62E083E40E94B10B0E94FF09E3
:10030C000E944B0A0E949B0B68EC70E080E00E94FC
:10031C00CE0A2FEF33ED40E3215030404040E1F75F
:10032C0000C000000E94AD0B80E091E00E94940B95
:10033C00813039F481E091E00E94940B813009F412
:10034C00D4C065ED70E080E00E94CE0A61E082E0EE
:10035C000E94580B6FED70E080E00E94CE0A8FEF88
:10036C0093EDA0E381509040A040E1F700C0000065
:10037C000E94AD0B6AEE70E080E00E94CE0A61E054
:10038C0082E00E94580B69EF70E080E00E94CE0A78
:10039C008FEF89838A838B838C83FE0131965F0177
:1003AC007F011CE00E94F1088F3FE1F3F70181937C
:1003BC007F010E947E0BFFEF25EA3EE0F1502040CA
:1003CC003040E1F700C00000612F82E00E94580B22
:1003DC008AE20E947E0B4FEF81EE94E04150804008
:1003EC009040E1F700C000001F5F1031D9F6CE013C
:1003FC0001966C01A0E8EA2E24E030E06E2DA601F7
:10040C0082E091E00E94880A61E080E091E00E9425
:10041C00660B0E94AD0B65E071E080E00E94CE0A95
:10042C00EFEFF9E628E1E150F0402040E1F700C0A1
:10043C0000000E94AD0B60E171E080E00E94CE0AEA
:10044C0061E082E00E94580B6EE171E080E00E9456
:10045C00CE0A1CE00E94F1088F3FE1F3F501819375
:10046C005F010E947E0BFFEF25EA3EE0F150204039
:10047C003040E1F700C00000612F82E00E94580B71
:10048C008AE20E947E0B4FEF81EE94E04150804057
:10049C009040E1F700C000001F5F1031D9F624E056
:1004AC0030E06E2DA60186E091E00E94880A61E0A2
:1004BC0081E091E00E94660B0E94AD0B65E071E05B
:1004CC0080E00E94CE0AAFEFE9E6F8E1A150E040EF
:1004DC00F040E1F700C000000E94AD0B60E08AE044
:1004EC0091E00E94660B1C8605C08AE091E00E9498
:1004FC00940B8C8710E0EE24EA94CE0101969E01B9
:10050C002B5F3F4FC82ED92E3C0140E8842EC901E9
:10051C00A0E889879A87AB8780917200813009F5B2
:10052C000E948A0B1092710010927000109272004F
:10053C0061E083E40E94B90B60E083E40E94B90B94
:10054C000E94AD0B6AE271E080E00E94CE0A9FEF40
:10055C00A3EDE0E39150A040E040E1F700C00000C3
:10056C0002C01111CDC1F12C0E2D0F2EF2E3AF2EC6
:10057C00F02DFC85F13059F50E94AD0B6AE371E06A
:10058C0080E00E94CE0A61E082E00E94580B68E491
:10059C0071E080E00E94CE0A62E083E40E94B50B19
:1005AC0024E53DEC4DE283E021503040404080405A
:1005BC00D9F700C000C0000062E083E40E94B90BD0
:1005CC0060E08AE091E00E94660BF12C1C860E9490
:1005DC00AD0B68E571E080E00E94CE0A61E082E03C
:1005EC000E94580B66E671E080E00E94CE0A0F3F35
:1005FC0029F40E94F108082F8F3FD9F380ED800F6A
:10060C00823090F00E94AD0B65E771E080E00E94B3
:10061C00CE0A9FEFA3EDE0E39150A040E040E1F75C
:10062C0000C000000E2DA5CFED82EE82EF82E88691
:10063C00E982EA82EB82EC82003321F0013309F487
:10064C00AEC05AC19A2C9F180E94AD0B62E871E0A3
:10065C0080E00E94CE0A61E082E00E94580B6DE8B7
:10066C0071E080E00E94CE0AFFEF23EC39E0F150FC
:10067C0020403040E1F700C000008E010B5F1F4F9F
:10068C000F2EFCE05F2EF02D0E94F1088F3FE1F35E
:10069C00F80181938F010E947E0BFFEF25EA3EE06B
:1006AC00F15020403040E1F700C00000652D82E0A1
:1006BC000E94580B8AE20E947E0B4FEF81EE94E071
:1006CC00415080409040E1F700C000005394A0E1FD
:1006DC005A12DACF44E050E06C2D7D2D82E091E08F
:1006EC000E94E90A04E0482D930169857A858B857F
:1006FC000E94B209813029F50E94AD0B69E971E0C5
:10070C0080E00E94CE0A61E082E00E94580B62E811
:10071C0071E080E00E94CE0AEFEFF9E628E1E150AB
:10072C00F0402040E1F700C0000060E083E40E944C
:10073C00B50B0E942F0B0E94AD0BF12C0E2D11E06E
:10074C00DCC0F3940E94AD0B64EA71E080E00E947F
:10075C00CE0A61E082E00E94580B6FEA71E080E003
:10076C000E94CE0A892D0E947E0B3FEF43ED80E361
:10077C00315040408040E1F700C000000E94AD0BBA
:10078C009A9492E09F1508F05FCF61E08AE091E0C7
:10079C000E94660B0E2DA1E0AC8710E0AEC09A2C27
:1007AC009F180E94AD0B6BEB71E080E00E94CE0AAB
:1007BC0061E082E00E94580B65EC71E080E00E94E1
:1007CC00CE0AEFEFF3EC29E0E150F0402040E1F7E6
:1007DC0000C000008E010B5F1F4F0F2EFCE05F2E40
:1007EC00F02D0E94F1088F3FE1F3F80181938F0106
:1007FC000E947E0BFFEF25EA3EE0F1502040304096
:10080C00E1F700C00000652D82E00E94580B8AE2DF
:10081C000E947E0B4FEF81EE94E04150804090405F
:10082C00E1F700C000005394A0E15A12DACF44E083
:10083C0050E06C2D7D2D86E091E00E94E90A04E0E9
:10084C00482D930169857A858B850E94B209813088
:10085C0029F50E94AD0B69E971E080E00E94CE0A97
:10086C0061E082E00E94580B6BEB71E080E00E942B
:10087C00CE0AEFEFF9E628E1E150F0402040E1F735
:10088C0000C0000061E083E40E94B50B0E942F0BB6
:10089C000E94AD0BF12C0E2D12E02FC0F3940E9490
:1008AC00AD0B61ED71E080E00E94CE0A61E082E068
:1008BC000E94580B6FEA71E080E00E94CE0A892DED
:1008CC000E947E0B3FEF43ED80E33150404080406F
:1008DC00E1F700C000000E94AD0B9A9492E09F15C6
:1008EC0008F05FCF61E08AE091E00E94660B0E2D6C
:1008FC00A1E0AC8710E001C010E0112309F439CE5F
:10090C00FF24F3940F2EF9E04F2EF02D0F2EFAE06A
:10091C003F2EF02D0F2EF7E02F2EF02D68949924FA
:10092C0093F80F2EF6E0AF2EF02D0F2EF3E05F2E86
:10093C00F02D6894BB24B2F8BDC1FA013197EA30AE
:10094C00F10508F0BBC1E65DFF4F0C94A20B8823A8
:10095C0009F40CC1F92CAEC10E94AD0B6CED71E029
:10096C0080E00E94CE0A61E082E00E94580B1130B8
:10097C0031F46CEE71E080E00E94CE0A07C01230B8
:10098C0029F46CEF71E080E00E94CE0A812F0E9466
:10099C00AF0A082FEFEFF1EE24E0E150F0402040D9
:1009AC00E1F700C00000813309F48CC1823309F4F3
:1009BC008BC1833309F48AC1843339F4123009F4BE
:1009CC008AC1113009F09EC188C18F3FA1F00E94ED
:1009DC00AD0B6CE072E080E00E94CE0A3FEF49E67E
:1009EC0088E1315040408040E1F700C000000153E5
:1009FC00043008F45FC180917200882309F4ACCFF5
:100A0C0059C10E94AD0B68E172E080E00E94CE0AF1
:100A1C0061E082E00E94580B69E272E080E00E9483
:100A2C00CE0A812F0E94AF0A082F9FEFA1EEE4E0BF
:100A3C009150A040E040E1F700C00000813309F480
:100A4C0050C1823309F44FC1833309F44EC184334E
:100A5C0009F44DC18F3FA1F00E94AD0B6CE072E028
:100A6C0080E00E94CE0AFFEF29E638E1F1502040E9
:100A7C003040E1F700C000000153043008F41AC103
:100A8C0080917200882309F4BCCF14C10E94AD0B75
:100A9C006AE372E080E00E94CE0A61E082E00E948C
:100AAC00580B6DE472E080E00E94CE0A812F0E9408
:100ABC00AF0A082F4FEF81EE94E0415080409040F8
:100ACC00E1F700C00000013309F414C1023309F44A
:100ADC0013C1003309F412C10F3FA1F00E94AD0BFA
:100AEC006CE072E080E00E94CE0AAFEFE9E6F8E13C
:100AFC00A150E040F040E1F700C00000005303308B
:100B0C0008F4D8C080917200882309F4BFCFD2C0FA
:100B1C00612F852D0E949906FF24F394CBC0612F81
:100B2C008B2D0E949906FF24F394C4C0612F85E09D
:100B3C000E949906FF24F394BDC0612F8A2D0E9458
:100B4C009906123009F4AEC06894FF24F1F8B2C0D3
:100B5C00612F822D0E9499066894FF24F1F8AAC097
:100B6C00612F842D0E949906F92CA4C00E94AD0B14
:100B7C006EE572E080E00E94CE0A8FED0E947E0B43
:100B8C0083E40E947E0B6BE081E00E94580B2FEFF8
:100B9C0033EC49E0215030404040E1F700C0000008
:100BAC00812F0E94AF0A9FEFA4E3ECE09150A0408C
:100BBC00E040E1F700C0000090917200913009F420
:100BCC0074C000ED080F0A3088F00E94AD0B6CE089
:100BDC0072E080E00E94CE0AFFEF29E638E1F15086
:100BEC0020403040E1F700C0000055C00E947E0B51
:100BFC00812F0E94AF0A4FEF94E3ACE0415090403C
:100C0C00A040E1F700C0000090917200913009F40F
:100C1C004EC00F2EF0EDFF2EF02DF80EE9E0EF1583
:100C2C0088F40E94AD0B6CE072E080E00E94CE0A6A
:100C3C00FFEF29E638E1F15020403040E1F700C0E9
:100C4C00000029C00E947E0B000F802F880F880F98
:100C5C00080FF00E80E40E94A80B4FEF83EC99E094
:100C6C00415080409040E1F700C000008F2D0E9461
:100C7C00A80B0E94AD0B6CE672E080E00E94CE0ADD
:100C8C00AFEFE9E6F8E1A150E040F040E1F700C039
:100C9C000000F1100EC080917200882309F466CF19
:100CAC00F92C08C0FF24F39405C0F92C03C0F92CCF
:100CBC0001C0F92C809172004F2D50E0813009F069
:100CCC003CCE2ACCF52CF6CFFB2CF4CF0F2EF5E036
:100CDC00FF2EF02DEFCFFA2CEDCF6894FF24F1F816
:100CEC00E9CFFA2CE7CFF22CE5CFF92CE3CFFF2498
:100CFC00F394E0CFF32CDECFF42CDCCF6894FF24FC
:100D0C00F1F8D8CF0E94AD0B6CE072E080E00E944D
:100D1C00CE0A2FEF39E648E1215030404040E1F750
:060D2C0000C00000C7CF6B
:100D32008F929F92AF92BF92CF92DF92EF92FF92E9
:100D42000F931F93CF93DF93D82FE62E00E0F12C61
:100D520010E00F2EF3E18F2EF02D0F2EF5E19F2ED6
:100D6200F02D0F2EF4E1AF2EF02D0F2EF6E1BF2E57
:100D7200F02D0F2EF1E1CF2EF02D0F2EF2E1DF2E0E
:100D8200F02D0E94AD0BD53021F128F4D33049F07B
:100D9200D43099F04DC0D730A1F138F1D930E9F112
:100DA20047C06DE772E080E00E94CE0A01E30F2E99
:100DB200F1E2FF2EF02D1C2D3BC068E872E080E0CE
:100DC2000E94CE0A02E30F2EF2E2FF2EF02D1D2D1D
:100DD2002FC061E972E080E00E94CE0A03E30F2E89
:100DE200F3E2FF2EF02D182D23C06AE972E080E0B5
:100DF2000E94CE0A04E30F2EF4E2FF2EF02D1A2DEC
:100E020017C063EA72E080E00E94CE0A05E30F2E6B
:100E1200F5E2FF2EF02D192D0BC06BEA72E080E097
:100E22000E94CE0A06E30F2EF6E2FF2EF02D1B2DB6
:100E3200812F0E94A80B2FEF81EE94E02150804079
:100E42009040E1F700C000008FEF0E94A80B8130B4
:100E520031F468EB72E080E00E94CE0A05C06BEBD1
:100E620072E080E00E94CE0A61E082E00E94580BAC
:100E72006FEB72E080E00E94CE0A8E2D0E94AF0AD4
:100E8200C82F2FEF81EE94E0215080409040E1F78F
:100E920000C00000C13321F48F2D0E94A80B22C094
:100EA200C23321F4802F0E94A80B1CC0CF3FA9F0AF
:100EB200C033C1F00E94AD0B60ED72E080E00E9491
:100EC200CE0A2FEF89E698E1215080409040E1F769
:100ED20000C00000C053C33028F080917200882304
:100EE20009F44FCFDF91CF911F910F91FF90EF90B7
:0E0EF200DF90CF90BF90AF909F908F900895AB
:100F0000823461F118F4813441F00895833409F496
:100F100046C0843409F464C00895413099F480B720
:100F20008B7F80BF2AB381E090E002C0880F991FB9
:100F30006A95E2F7982F909592239ABB9BB3892BE1
:100F40008BBB08952BB381E090E002C0880F991FFE
:100F50006A95E2F7809582238BBB0895413099F41E
:100F600080B78B7F80BF27B381E090E002C0880FFD
:100F7000991F6A95E2F7982F9095922397BB98B3A3
:100F8000892B88BB089528B381E090E002C0880FC8
:100F9000991F6A95E2F78095822388BB08954130B6
:100FA00099F480B78B7F80BF24B381E090E002C0CA
:100FB000880F991F6A95E2F7982F9095922394BB1A
:100FC00095B3892B85BB089525B381E090E002C0DD
:100FD000880F991F6A95E2F78095822385BB089553
:100FE000413099F480B78B7F80BF21B381E090E0DE
:100FF00002C0880F991F6A95E2F7982F9095922367
:1010000091BB92B3892B82BB089522B381E090E01B
:1010100002C0880F991F6A95E2F78095822382BBF0
:02102000089531
:10102200823419F118F4813439F008958334B1F11E
:10103200843409F44CC00895413059F42AB381E054
:1010420090E002C0880F991F6A95E2F7822B8ABB53
:1010520008952AB381E090E002C0880F991F6A9533
:10106200E2F7809582238ABB0895413059F427B371
:1010720081E090E002C0880F991F6A95E2F7822B07
:1010820087BB089527B381E090E002C0880F991FC3
:101092006A95E2F78095822387BB0895413059F41F
:1010A20024B381E090E002C0880F991F6A95E2F7AD
:1010B200822B84BB089524B381E090E002C0880FA4
:1010C200991F6A95E2F78095822384BB0895413087
:1010D20059F421B381E090E002C0880F991F6A950C
:1010E200E2F7822B81BB089521B381E090E002C038
:1010F200880F991F6A95E2F78095822381BB089534
:10110200823419F118F4813439F008958334B1F13D
:10111200843409F44CC00895413059F42BB381E072
:1011220090E002C0880F991F6A95E2F7822B8BBB71
:1011320008952BB381E090E002C0880F991F6A9551
:10114200E2F7809582238BBB0895413059F428B38E
:1011520081E090E002C0880F991F6A95E2F7822B26
:1011620088BB089528B381E090E002C0880F991FE0
:101172006A95E2F78095822388BB0895413059F43D
:1011820025B381E090E002C0880F991F6A95E2F7CB
:10119200822B85BB089525B381E090E002C0880FC1
:1011A200991F6A95E2F78095822385BB08954130A5
:1011B20059F422B381E090E002C0880F991F6A952A
:1011C200E2F7822B82BB089522B381E090E002C055
:1011D200880F991F6A95E2F78095822382BB089552
:1011E200EF92FF920F931F93CF93DF93CDB7DEB7AA
:1011F20060970FB6F894DEBF0FBECDBF80E1E0E688
:10120200F0E0DE01119601900D928A95E1F7E12C52
:10121200F12C0FEF41E060E084E40E94810841E09C
:1012220061E084E40E94810841E062E084E40E947B
:10123200810841E063E084E40E9481082FEF89EF96
:1012420090E0215080409040E1F700C0000040E073
:101252006E2D84E40E94810810E064E0610F84E452
:101262000E945D0981110FC0F701EE0FFF1FEE0F03
:10127200FF1F81E090E08C0F9D1FE80FF91FE10F27
:10128200F11D008103C01F5F143039F79FEFE91A87
:10129200F90A24E0E216F10409F0BCCF802F60962F
:1012A2000FB6F894DEBF0FBECDBFDF91CF911F9175
:0812B2000F91FF90EF900895E9
:1012BA008234D9F018F4813431F04DC0833439F1D5
:1012CA008434B9F148C029B381E090E0062E02C007
:1012DA00880F991F0A94E2F730E08223932302C011
:1012EA00959587956A95E2F7089526B381E090E08F
:1012FA00062E02C0880F991F0A94E2F730E0822373
:10130A00932302C0959587956A95E2F7089523B3CA
:10131A0081E090E0062E02C0880F991F0A94E2F736
:10132A0030E08223932302C0959587956A95E2F768
:10133A00089520B381E090E0062E02C0880F991F1D
:10134A000A94E2F730E08223932302C095958795A9
:0A135A006A95E2F7089580E0089517
:101364006F927F928F92CF92DF92EF920F936B01E5
:10137400E82E0023A9F1FB019491E7FC9081F90187
:10138400849147FD808198132DC08FEFC81AD80A25
:10139400E80AA42FC9010196A11D0150602F70E035
:1013A4006F5F7F4F3901842E660E771E811C77FD97
:1013B4008A9410C0F6014491E7FC4081FC01349109
:1013C400A7FD30812FEFC21AD20AE20A0196A11DAD
:1013D40043130AC086159705A80561F781E005C087
:1013E40081E003C080E001C080E00F91EF90DF90C6
:0A13F400CF908F907F906F900895C6
:1013FE0041E060E081E40E94110841E061E081E497
:10140E000E94110841E062E081E40E94110841E06F
:10141E0063E081E40E94110841E064E081E40E94EF
:10142E00110841E065E081E40E94110841E066E0A8
:10143E0081E40E94110841E067E081E40E941108F6
:10144E0041E060E082E40E94110841E062E082E443
:10145E000E94110841E061E082E40E94110840E020
:10146E0062E082E40E94810888E30E94720B81E0B0
:10147E000E94720B8EE00E94720B8FE39CE9019723
:08148E00F1F700C00000089511
:1014960041E060E084E40E94110841E061E084E4F8
:1014A6000E94110841E062E084E40E94110841E0D4
:1014B60063E084E40E94110840E064E084E40E9452
:1014C600110840E065E084E40E94110840E066E00F
:1014D60084E40E94110840E067E084E40E94110859
:1014E60041E064E084E40E94800741E065E084E432
:1014F6000E94800741E066E084E40E94800741E0A4
:0A15060067E084E40E948007089566
:10151000CF92DF92EF9221153105E9F0C42ED52E3E
:10152000E62EB901680F791FE199FECF9FBB8EBBF4
:10153000E09A4DB3F6013491E7FC3081431719F07E
:101540003DBBE29AE19A01962FEFC21AD20AE20A53
:0E1550008617970749F7EF90DF90CF90089528
:10155E00CF93C82F80917000909171008037974182
:10156E0010F0C13049F08091700090917100803A76
:10157E009F4038F0C23029F481E0809372008FEFE3
:0E158E0004C00E94F1088F3F29F3CF91089509
:10159C00CF92DF92EF926B01E82EFB018491E7FC76
:1015AC008081882361F00E947E0B8FEFC81AD80AC5
:1015BC00E80AF6018491E7FC80818111F4CFEF9069
:0615CC00DF90CF900895AE
:1015D200E199FECF4115510591F0460F571FFB01CE
:1015E2009C01261B370BB9019B012E0F3F1F3FBBEE
:1015F2002EBBE09A9DB39193E417F507A9F70895DE
:1016020041E060E082E40E9481088FE39FE101975C
:10161200F1F700C0000040E060E082E40E9481082F
:0E1622008FE39FE10197F1F700C000000895EB
:101630001F920F920FB60F9211248F939F93809158
:1016400070009091710001969093710080937000EA
:0E1650009F918F910F900FBE0F901F901895D5
:10165E008EE48CBF83B7886083BF83B78F7B83BFD5
:10166E0083B7816083BF83B78D7F83BF83B7846069
:0C167E0083BF789489B7826089BF08950B
:10168A00823459F018F4813431F00895833439F0F2
:10169A00843439F008956BBB089568BB089565BB1F
:0616AA00089562BB0895E3
:1016B000813019F48FE7860F06C0823019F48FEB62
:0C16C000860F01C080E80E94720B0895A4
:1016CC00E199FECF9FBB8EBBE09A8DB3861719F0C4
:0816DC006DBBE29AE19A08954A
:1016E400682F81E40E94450B40E061E082E40E949F
:0816F40081080E94010B08951A
:1016FC00682F81E40E94450B41E061E082E40E9486
:08170C0081080E94010B089501
:1017140083B78E7F83BF83B78D7F83BF83B78B7F70
:0417240083BF0895E2
:0E172800E199FECF9FBB8EBBE09A8DB3089572
:0E17360087B3806B87BB8DB181658DB9089537
:0C174400EE0FFF1F0590F491E02D0994BA
:0A1750008FB9779BFECF8FB108958B
:08175A0081E00E94720B08956A
:0817620041E00E941108089506
:08176A0041E00E94810808958E
:0817720040E00E948108089587
:04177A000C940000CB
:10177E003738392F3435362A3132332D41303D2B1F
:00000001FF
